:040000008A114F2FE3
:100E9E0083018A11C42F8312031385140510851341
:100EAE000517851505110512080083120313851009
:100EBE0005108513051385150515051208008312F7
:100ECE0003138510051085170513851105150512D9
:100EDE000800831203138514051085130517851555
:100EEE0005150516080083120313851405148517BE
:100EFE00051785150515051208008A118E278A110A
:100F0E00F1008A1199278A1171088D2F08008F2FF1
:100F1E00831203138C1E942F952F8F2F962F1A0842
:100F2E00982F0800F0009B2F831203130C1EA02F86
:100F3E00A12F9B2FA22F7008990008008316031370
:100F4E0006158616333099009030831203139800DD
:100F5E0020308316031398000800603083160313A5
:100F6E008F008501043086009B01831203138501D7
:100F7E0086018A11A5278A1108008A11B4278A11C1
:100F8E008A1184278A11F2007208F3007308313A2D
:100F9E00031DD22FD32FD72F8A1170278A11C72F57
:100FAE007308323A031DDC2FDD2FE12F8A116627DD
:100FBE008A11C72F7308333A031DE62FE72FEB2F45
:100FCE008A115C278A11C72F7308343A031DF02F3C
:100FDE00F12FF52F8A1152278A11C72F8A117A27DE
:100FEE008A11C72FC72FC72FC72FC72FC72F8A11F9
:020FFE000028C9
:04400E0018FFFCFF9C
:00000001FF
