:040000008A11A12F91
:100F420083018A11CC2FF000A62F831203130C1EEB
:100F5200AB2FAC2FA62FAD2F700899000800603080
:100F6200831603138F000F308500043086009B0127
:100F72008A11BD278A1108008316031306158616E7
:100F82003330990090308312031398002030831677
:100F92000313980008008A11B0278A11D02F8312F8
:100FA20003130518D52FD62FDB2F31308A11A42732
:100FB2008A11DB2F831203138518E02FE12FE62F0E
:100FC20032308A11A4278A11E62F831203130519DE
:100FD200EB2FEC2FF12F33308A11A4278A11F12F36
:100FE200831203138519F62FF72FD02F34308A116D
:0E0FF200A4278A11D02FD02FD02F8A110028CB
:04400E0018FFFCFF9C
:00000001FF
