:040000008A11782FBA
:100EF00083018A11BB2F8A1185278A11F1008A117B
:100F000090278A117108842F0800862F83120313FB
:100F10008C1E8B2F8C2F862F8D2F1A088F2F080059
:100F2000F000922F831203130C1E972F982F922FED
:100F3000992F70089900080083160313061586166A
:100F400033309900903083120313980020308316B9
:100F50000313980008006030831603138F00850187
:100F6000043086009B0183120313850186018A11D8
:100F70009C278A1108008A11AB278A118A117B27C6
:100F80008A11F2007208F30073085B3A031DC92F3F
:100F9000CA2FF72F8A117B278A11F2007208F500F9
:100FA0008A117B278A11F2007208F4007508740612
:100FB000031DDB2FDC2FBE2FED2FED2F831203132C
:100FC00005148510BE2F8312031305108514BE2F40
:100FD0008312031305108510BE2F7508613A03199B
:100FE000DE2F033A0319E32FE82FBE2FBE2F831203
:100FF000031305108510BE2FBE2FBE2F8A110028A7
:04400E0018FFFCFF9C
:00000001FF
