:040000008A11D42E5F
:100DA80083018A11FE2E6030831603138F0085019C
:100DB800043086009B018A11EF268A110800F00092
:100DC800E52E831203130C1EEA2EEB2EE52EEC2ED5
:100DD8007008990008008316031306158616333029
:100DE8009900903083120313980020308316031360
:100DF800980008008A11D7268A1183120313A401C8
:100E0800A501A601A701A801A901AA01AB010C2F00
:100E1800051F0F2F102F152F1030F1007108A1009A
:100E2800162FA1010518192F1A2F322F2908280467
:100E3800031D1F2F202F322F0130A4000030A500E2
:100E48000430F1007108A2008230F200DD30F100B8
:100E5800F10B2C2FF20B2C2F312F4B2F051C352F7C
:100E6800362F4B2F013024062504031D3C2F3D2F20
:100E78004B2FA401A501A2018230F200DD30F10060
:100E8800F10B442FF20B442F492F4B2F4B2F83127A
:100E980003138518502F512F672F2B082A04031D81
:100EA800562F572F672F0130A6000030A700A30147
:100EB800A30A8230F200DD30F100F10B612FF20B52
:100EC800612F662F802F851C6A2F6B2F802F013092
:100ED80026062704031D712F722F802FA601A70154
:100EE800A3018230F200DD30F100F10B792FF20B13
:100EF800792F7E2F802F802F831203130519852FBA
:100F0800862F9E2F25082404031D8B2F8C2F9E2FA0
:100F18000130A8000030A9000830F1007108A200D3
:100F28008230F200DD30F100F10B982FF20B982F90
:100F38009D2FB72F051DA12FA22FB72F01302806EF
:100F48002904031DA82FA92FB72FA801A901A201C1
:100F58008230F200DD30F100F10BB02FF20BB02F30
:100F6800B52FB72FB72F831203138519BC2FBD2FA9
:100F7800D52F27082604031DC22FC32FD52F0130D4
:100F8800AA000030AB000230F1007108A3008230E3
:100F9800F200DD30F100F10BCF2FF20BCF2FD42F61
:100FA800D52F83120313851DDA2FDB2FEF2F013086
:100FB8002A062B04031DE12FE22FEF2FAA01AB0114
:100FC800A3018230F200DD30F100F10BE92FF20BC2
:100FD800E92FEE2FEF2F5B308A11E3268A11831257
:100FE80003132108220423040338F1007108A00028
:080FF8000C2F0C2F8A110028B8
:04400E0018FFFCFF9C
:00000001FF
