:040000008A11672ECC
:100CCE0083018A11922EF0006C2E831203130C1ED8
:100CDE00712E722E6C2E732E7008990008006030E3
:100CEE00831603138F00FF308500013086009B01B1
:100CFE008A1183268A110800831603130615861699
:100D0E0033309900903083120313980020308316ED
:100D1E000313980008008A1176268A118312031392
:100D2E00A301A401A601A701A801A901AA01AB0173
:100D3E00AC01AD01AE01AF01A42E83120313061850
:100D4E00A92EAA2EC22E27082604031DAF2EB02EC2
:100D5E00C22E0130A6000030A700B82EB82EB82E35
:100D6E00B82E8230F200DD30F100F10BBC2EF20B0A
:100D7E00BC2EC12EDA2E061CC52EC62EDA2E013042
:100D8E0026062704031DCC2ECD2EDA2EA601A70192
:100D9E008230F200DD30F100F10BD32EF20BD32EA8
:100DAE00D82EDA2EDA2E831203130519DF2EE02E3B
:100DBE00F42E2D082C04031DE52EE62EF42E013004
:100DCE00A8000030A9008230F200DD30F100F10BF6
:100DDE00EE2EF20BEE2EF32E0C2F051DF72EF82E07
:100DEE000C2F013028062904031DFE2EFF2E0C2F7A
:100DFE00A801A9018230F200DD30F100F10B052FC0
:100E0E00F20B052F0A2F0C2F0C2F831203138518AC
:100E1E00112F122F262F2F082E04031D172F182FD8
:100E2E00262F0130AA000030AB008230F200DD30F8
:100E3E00F100F10B202FF20B202F252F3E2F851CBA
:100E4E00292F2A2F3E2F01302A062B04031D302F67
:100E5E00312F3E2FAA01AB018230F200DD30F100BE
:100E6E00F10B372FF20B372F3C2F3E2F3E2F8312D5
:100E7E0003138519432F442F582F29082804031DC7
:100E8E00492F4A2F582F0130AC000030AD00823070
:100E9E00F200DD30F100F10B522FF20B522F572FD3
:100EAE00702F851D5B2F5C2F702F01302C062D04AB
:100EBE00031D622F632F702FAC01AD018230F20043
:100ECE00DD30F100F10B692FF20B692F6E2F702FB1
:100EDE00702F831203130518752F762F8A2F2B0868
:100EEE002A04031D7B2F7C2F8A2F0130AE00003089
:100EFE00AF008230F200DD30F100F10B842FF20BE7
:100F0E00842F892F8A2F83120313051C8F2F902F66
:100F1E00A32F01302E062F04031D962F972FA32FDC
:100F2E00AE01AF018230F200DD30F100F10B9D2FEA
:100F3E00F20B9D2FA22FA32F831203132408230439
:100F4E000319AA2FAB2FB12F1030F1007108A0009A
:100F5E008614B32FA001B32F2B082A040319B82F20
:100F6E00B92FBD2FA201A20A0616CB2F2F082E04D1
:100F7E000319C22FC32FC82F0230F1007108A2002F
:100F8E00CB2FA201CB2FCB2F290828040319D02F4A
:100F9E00D12FD72F0430F1007108A1008615E52F4F
:100FAE002D082C040319DC2FDD2FE22F0830F10061
:100FBE007108A100E52FA101E52FE52F5B308A1105
:100FCE006A268A1183120313200821042204603832
:100FDE00F1007108A50025088A116A268A1183126C
:100FEE00031325088A116A268A11A42EA42E8A11AB
:020FFE000028C9
:04400E0018FFFCFF9C
:00000001FF
