:040000008A117C2EB7
:100CF800F701F80183018A110B2F7708FF3EF700EF
:100D080078080318013EFF3EF80008007708013E06
:100D1800F70078080318013E003EF8000800831227
:100D28000313851005108513051385150511051284
:100D38000800831203138510051085130513851108
:100D48000511051208008312031385100510851379
:100D58000517851505150516080083120313851058
:100D68000511051285130513851105140800831252
:100D78000313851005148513051385150511051230
:100D880008008312031385140510851305178515AC
:100D98000511051208008312031385100510851329
:100DA8000513851505150512080083120313851010
:100DB80005108517051385110515051208008312FE
:100DC80003138514051085130517851505150516D4
:100DD8000800831203138510051085130513851168
:100DE8000511051608006030831603138F0085016E
:100DF800033086009B0183120313851005108513A9
:100E08000513851105110516F701F80108008A1167
:100E1800F7268A11F301F401F501F601132F831265
:100E280003130618182F192F342F74087304031D81
:100E38001E2F1F2F342F8A118A268A110130F300A2
:100E48000030F4000230F2000430F100BA30F00053
:100E5800F00B2C2FF10B2C2FF20B2C2F0000342F22
:100E680083120313061C392F3A2F512F01307306B2
:100E78007404031D402F412F512FF301F401023058
:100E8800F2000430F100BA30F000F00B492FF10BFA
:100E9800492FF20B492F0000512F83120313861894
:100EA800562F572F722F76087504031D5C2F5D2F60
:100EB800722F8A1181268A110130F5000030F60060
:100EC8000230F2000430F100BA30F000F00B6A2F63
:100ED800F10B6A2FF20B6A2F0000722F8312031393
:100EE800861C772F782F8F2F013075067604031D07
:100EF8007E2F7F2F8F2FF501F6010230F20004308C
:100F0800F100BA30F000F00B872FF10B872FF20BAE
:100F1800872F00008F2F78087704031D942F952FB3
:100F2800992F8A11ED268A11992F013077067804B6
:100F3800031D9F2FA02FA42F8A11E3268A11A42F07
:100F4800023077067804031DAA2FAB2FAF2F8A1122
:100F5800D9268A11AF2F033077067804031DB52FE1
:100F6800B62FBA2F8A11CF268A11BA2F04307706E6
:100F78007804031DC02FC12FC52F8A11C5268A11D9
:100F8800C52F053077067804031DCB2FCC2FD02F23
:100F98008A11BB268A11D02F063077067804031DE4
:100FA800D62FD72FDB2F8A11B1268A11DB2F0730D6
:100FB80077067804031DE12FE22FE62F8A11A72672
:100FC8008A11E62F083077067804031DEC2FED2FE1
:100FD800F12F8A119D268A11F12F0930770678049E
:100FE800031DF72FF82F132F8A1193268A11132F19
:080FF800132F132F8A110028AA
:04400E0018FFFCFF9C
:00000001FF
