:040000008A11B72F7B
:100F6E0083018A11C22F6030831603138F0085010F
:100F7E0086019B0108008A11BA278A11C62F831297
:100F8E0003138610061506100B30F2002630F10002
:100F9E006630F000F00BD12FF10BD12FF20BD12FC9
:100FAE00D82F831203138610061106140B30F2008D
:100FBE002630F1006630F000F00BE32FF10BE32F3B
:100FCE00F20BE32FEA2F8312031386140611061079
:100FDE000B30F2002630F1006630F000F00BF52FEA
:100FEE00F10BF52FF20BF52FFC2FC62FC62F8A1102
:020FFE000028C9
:04400E0018FFFCFF9C
:00000001FF
