:040000008A115C2FD6
:100EB80083018A11712F6030831603138F00850117
:100EC800013086009B0183120313851405148517CE
:100ED800051785150515051608008A115F278A115B
:100EE800FA01FB010130F8000030F9007B2F831272
:100EF80003130618802F812F852F0130FA00003048
:100F0800FB00013078067904031D8B2F8C2F9C2F52
:100F180001307A067B04031D922F932F9C2F851096
:100F2800FA01FB010130F0000030F100F801F9018D
:100F3800013070067104031DA22FA32FB32F0130B7
:100F48007A067B04031DA92FAA2FB32F0510FA01D7
:100F5800FB010130F2000030F300F001F101013033
:100F680072067304031DB92FBA2FCA2F01307A06EF
:100F78007B04031DC02FC12FCA2F8513FA01FB0163
:100F88000130F4000030F500F201F301013074067D
:100F98007504031DD02FD12FE12F01307A067B0471
:100FA800031DD72FD82FE12F0513FA01FB010130BC
:100FB800F6000030F700F401F501013076067704F9
:100FC800031DE72FE82F7B2F01307A067B04031DD2
:100FD800EE2FEF2F7B2F8514051485170517FA01BF
:100FE800FB010130F8000030F900F601F7017B2F12
:080FF8007B2F7B2F8A110028DA
:04400E0018FFFCFF9C
:00000001FF
