:040000008A11672FCB
:100ECE0083018A11A52F8A1174278A11F1008A11C4
:100EDE008A278A117108732F0800752F8312031346
:100EEE008C1E7A2F7B2F752F7C2F1A087E2F0800D1
:100EFE006030831603138F00850186019B018A11D2
:100F0E0096278A110800F0008C2F831203130C1EF3
:100F1E00912F922F8C2F932F700899000800831613
:100F2E00031306158616333099009030831203137F
:100F3E009800203083160313980008008A117F272B
:100F4E008A118A116A278A11F2007208F300730857
:100F5E005B3A031DB32FB42FF32F8A116A278A1120
:100F6E00F2007208F5008A116A278A11F2007208DF
:100F7E00F40075087406031DC52FC62FA82F75081B
:100F8E00E039603A031DCC2FCD2FA82FD82FD82FA4
:100F9E008312031305158511E62FD82F051185151C
:100FAE00E62F8312031305118511E62FE62FE62F88
:100FBE0005148510EE2FE62F05108514EE2F051063
:100FCE008510EE2FEE2FEE2F06148610A82F06108A
:100FDE008614A82FA82FA82F83120313051085108F
:100FEE000511851106108610A82FA82FA82F8A117B
:020FFE000028C9
:04400E0018FFFCFF9C
:00000001FF
