:040000008A119B2F97
:100F360083018A11C62FF000A02F831203130C1E03
:100F4600A52FA62FA02FA72F7008990008006030A4
:100F5600831603138F000F308500043086009B0133
:100F66008A11B7278A1108008316031306158616F9
:100F76003330990090308312031398002030831683
:100F86000313980008008A11AA278A11CA2F831210
:100F960003130518CF2FD02FDD2F5B308A119E2724
:100FA6008A1161308A119E278A1161308A119E2723
:100FB6008A11CA2F8518E02FE12FEE2F5B308A1198
:100FC6009E278A1162308A119E278A1162308A1101
:100FD6009E278A11CA2F5B308A119E278A1160309C
:100FE6008A119E278A1160308A119E278A11CA2F7C
:0A0FF600CA2FCA2FCA2F8A11002843
:04400E0018FFFCFF9C
:00000001FF
