:040000008A119C2F96
:100F380083018A11C62FF000A12F831203130C1E00
:100F4800A62FA72FA12FA82F70089900080060309E
:100F5800831603138F008501043086009B018A11D4
:100F6800B7278A110800831603130615861633302F
:100F780099009030831203139800203083160313CE
:100F8800980008008A11AB278A1131308A119F27EF
:100F98008A110330F3008A30F2005630F100F10B69
:100FA800D32FF20BD32FF30BD32FDA2F32308A1132
:100FB8009F278A110330F3008A30F2005630F1007F
:100FC800F10BE42FF20BE42FF30BE42FEB2F33306C
:100FD8008A119F278A110330F3008A30F2005630B5
:100FE800F100F10BF52FF20BF52FF30BF52FFC2F7A
:080FF800C92FC92F8A1100283E
:04400E0018FFFCFF9C
:00000001FF
