:040000008A11652FCD
:100ECA0083018A11A82F8A1172278A11F1008A11C7
:100EDA007D278A117108712F0800732F831203135B
:100EEA008C1E782F792F732F7A2F1A087C2F0800DF
:100EFA00F0007F2F831203130C1E842F852F7F2F60
:100F0A00862F7008990008008316031306158616A3
:100F1A0033309900903083120313980020308316DF
:100F2A000313980008006030831603138F008501AD
:100F3A00043086009B0183120313850186018A11FE
:100F4A0089278A1108008A1198278A11F601F70160
:100F5A00AE2F8A1168278A11F2007208F300770807
:100F6A007604031DB92FBA2FC42F73085B3A031DE9
:100F7A00BF2FC02FC42F0130F6000030F7007708CA
:100F8A0076040319C92FCA2FF92F8A1168278A11E3
:100F9A00F2007208F5008A1168278A11F2007208B5
:100FAA00F40075087406031DDB2FDC2FAE2FED2F1E
:100FBA00ED2F8312031305148510F52F83120313E3
:100FCA0005108514F52F8312031305108510F52FCC
:100FDA007508613A0319DE2F033A0319E32FE82F44
:100FEA00F601F701AE2FAE2FF601F701AE2FAE2FA5
:060FFA00AE2F8A11002851
:04400E0018FFFCFF9C
:00000001FF
