:040000008A11612FD1
:100EC20083018A11CC2F8A1176278A118312031388
:100ED2000614851508008A1180278A11F1008A11EB
:100EE200A1278A117108752F080083120313861037
:100EF2000610851185130513061286110800812F2D
:100F0200831203138C1E862F872F812F882F1A0896
:100F12008A2F08008A1176278A11831203138614F6
:100F2200061485158517861508008A1176278A11F9
:100F320083120313861406148517051786150800F5
:100F4200F000A32F831203130C1EA82FA92FA32F87
:100F5200AA2F700899000800831603130615861637
:100F62003330990090308312031398002030831697
:100F72000313980008006030831603138F00850165
:100F8200043086009B0183120313850186018A11B6
:100F9200AD278A1108008A11BC278A118A116C2791
:100FA2008A11F2007208F3007308313A031DDA2F36
:100FB200DB2FDF2F8A1164278A11CF2F7308323A71
:100FC200031DE42FE52FE92F8A1196278A11CF2FCF
:100FD2007308333A031DEE2FEF2FF32F8A118B275D
:100FE2008A11CF2F8A1176278A118312031386154D
:0E0FF200CF2FCF2FCF2FCF2FCF2F8A11002838
:04400E0018FFFCFF9C
:00000001FF
