:040000008A11E02E53
:100DC00083018A11582F8312031385100510851390
:100DD00005138515051105120800831203138510EC
:100DE00005108513051385110511051208008312DE
:100DF00003138510051085130517851505150516B0
:100E000008008312031385100511051285130513BD
:100E1000851105140800831203138510051485132A
:100E20000513851505110512080083120313851497
:100E30000510851305178515051105120800831285
:100E40000313851005108513051385150515051267
:100E500008008312031385100510851705138511EB
:100E60000515051208008312031385140510851358
:100E7000051785150515051608008312031385103F
:100E8000051085130513851105110516080060303E
:100E9000831603138F00850186019B0183120313C0
:100EA0008514051485170517851505150516080001
:100EB0008A1147278A115C2F8A113D278A110B302E
:100EC000F2002630F1006630F000F00B652FF10BD8
:100ED000652FF20B652F6C2F8A1133278A110B3087
:100EE000F2002630F1006630F000F00B752FF10BA8
:100EF000752FF20B752F7C2F8A1129278A110B3041
:100F0000F2002630F1006630F000F00B852FF10B77
:100F1000852FF20B852F8C2F8A111F278A110B30FA
:100F2000F2002630F1006630F000F00B952FF10B47
:100F3000952FF20B952F9C2F8A1115278A110B30B4
:100F4000F2002630F1006630F000F00BA52FF10B17
:100F5000A52FF20BA52FAC2F8A110B278A110B306E
:100F6000F2002630F1006630F000F00BB52FF10BE7
:100F7000B52FF20BB52FBC2F8A1101278A110B3028
:100F8000F2002630F1006630F000F00BC52FF10BB7
:100F9000C52FF20BC52FCC2F8A11F7268A110B30E3
:100FA000F2002630F1006630F000F00BD52FF10B87
:100FB000D52FF20BD52FDC2F8A11ED268A110B309D
:100FC000F2002630F1006630F000F00BE52FF10B57
:100FD000E52FF20BE52FEC2F8A11E3268A110B3057
:100FE000F2002630F1006630F000F00BF52FF10B27
:100FF000F52FF20BF52FFC2F5C2F5C2F8A110028A8
:04400E0018FFFCFF9C
:00000001FF
