:040000008A11F02E43
:100DE00083018A11FC2E6030831603138F00850166
:100DF0000F3086009B0108008A11F3268A11F30147
:100E0000F401F501F601F701F801F901FA01082FE3
:100E10008312031306180D2F0E2F272F780877043F
:100E2000031D132F142F272F0130F3000030F4007F
:100E300005140230F2000430F100BA30F000F00B7B
:100E40001F2FF10B1F2FF20B1F2F0000272F8312D4
:100E50000313061C2C2F2D2F452F0130730674040D
:100E6000031D332F342F452FF301F40105100230F9
:100E7000F2000430F100BA30F000F00B3D2FF10B1E
:100E80003D2FF20B3D2F0000452F831203138618D0
:100E90004A2F4B2F642F7A087904031D502F512FAE
:100EA000642F0130F5000030F60085140230F200A6
:100EB0000430F100BA30F000F00B5C2FF10B5C2F26
:100EC000F20B5C2F0000642F83120313861C692F22
:100ED0006A2F822F013075067604031D702F712F43
:100EE000822FF501F60185100230F2000430F10086
:100EF000BA30F000F00B7A2FF10B7A2FF20B7A2F29
:100F00000000822F831203130619872F882FA12F29
:100F100074087304031D8D2F8E2FA12F0130F7004D
:100F20000030F80005150230F2000430F100BA304C
:100F3000F000F00B992FF10B992FF20B992F000075
:100F4000A12F83120313061DA62FA72FBF2F013039
:100F500077067804031DAD2FAE2FBF2FF701F801E0
:100F600005110230F2000430F100BA30F000F00B4D
:100F7000B72FF10BB72FF20BB72F0000BF2F831243
:100F800003138619C42FC52FDE2F76087504031DA1
:100F9000CA2FCB2FDE2F0130F9000030FA00851563
:100FA0000230F2000430F100BA30F000F00BD62F1E
:100FB000F10BD62FF20BD62F0000DE2F8312031376
:100FC000861DE32FE42F082F013079067A04031DD4
:100FD000EA2FEB2F082FF901FA0185110230F200F8
:100FE0000430F100BA30F000F00BF42FF10BF42FC5
:100FF000F20BF42F0000082F082F082F8A11002869
:04400E0018FFFCFF9C
:00000001FF
